:020000040800F2
:1000000040D900206102000863520008293E000820
:1000100061520008350500080D7800080000000056
:10002000000000000000000000000000A101000826
:100030003106000800000000FD0100083D560008E0
:100040007B0200087B0200087B0200087B0200089C
:100050007B0200087B0200087B0200087B0200088C
:100060007B0200087B0200087B02000839050008BB
:100070007B020008450500087B0200087B0200089F
:10008000510500085D0500087B0200087B0200089E
:100090007B0200087B0200087B0200087B0200084C
:1000A0007B0200087B0200087B0200087B0200083C
:1000B0007B0200087B02000819570008393E00083F
:1000C0002D3E00087B0200087B020008F95300085F
:1000D0007B020008E55F00087B0200087B02000845
:1000E0007B0200087B0200087B0200087B020008FC
:1000F0007B020008255700087B0200087B020008ED
:100100007B0200087B0200087B02000805540008FF
:100110007B0200087B0200087B0200087B020008CB
:100120007B0200087B0200086905000875050008CD
:100130007B02000800000000000000007B020008B5
:100140007B0200087B0200087B0200087B0200089B
:100150007B0200087B020008810500087B02000882
:100160007B0200087B0200087152000865520008FB
:100170007B0200087D520008000000000000000023
:100180007B0200087B020008DFF810D000F000F9C5
:1001900000F0CEF800480047E589000840D900206B
:1001A0002C4B19680868B0E8F04F80F30988BFF35A
:1001B0006F8F4FF0000080F311887047000000003F
:1001C00008480068006880F308884FF0000080F35A
:1001D000148862B661B6BFF34F8FBFF36F8F00DF35
:1001E00000BF00BF08ED00E0DFF80C00016841F43B
:1001F00070010160704700BF88ED00E0EFF30980F7
:10020000BFF36F8F134B1A681EF0100F08BF20ED5D
:10021000108A20E9F04F106009B44FF0500080F3CD
:100220001188BFF34F8FBFF36F8F09F069FC4FF058
:10023000000080F3118809BC19680868B0E8F04F25
:100240001EF0100F08BFB0EC108A80F30988BFF3CE
:100250006F8F704774000020EFF305807047000037
:100260000648804706480047FEE7FEE7FEE7FEE750
:10027000FEE7FEE7FEE7FEE7FEE7FEE709570008B8
:10028000890100082DE9F05F0546002092469B4653
:1002900088460646814640241BE02846414647469C
:1002A000224600F064F853465A46C01A914110D3D2
:1002B00011461846224600F04BF82D1A67EB01084C
:1002C0004F4622460120002100F042F817EB0009BA
:1002D0004E41201EA4F10104DFDC484631462A4687
:1002E0004346BDE8F09F40EA01039B0703D009E0C5
:1002F00008C9121F08C0042AFAD203E011F8013B12
:1003000000F8013B521EF9D27047D2B201E000F86A
:10031000012B491EFBD270470022F6E710B51346A9
:100320000A4604461946FFF7F0FF204610BD0000BC
:1003300070B5054C054D03E0206820448047241D1E
:10034000AC42F9D170BD000058A900085CA90008B2
:10035000202A04DB203A00FA02F100207047914085
:10036000C2F1200320FA03F3194390407047202A7A
:1003700004DB203A21FA02F00021704721FA02F34F
:10038000D040C2F120029140084319467047000056
:10039000064C074D06E0E06840F0010394E80700D2
:1003A00098471034AC42F6D3FFF7F2FE38A90008A4
:1003B00058A9000870B58C1810F8015B15F00703F8
:1003C00001D110F8013B2A1106D110F8012B03E0EE
:1003D00010F8016B01F8016B5B1EF9D12B0705D4F6
:1003E0000023521E0DD401F8013BFAE710F8013B3F
:1003F000CB1A921C03E013F8015B01F8015B521E5B
:10040000F9D5A142D8D3002070BD0000464910B5EF
:100410004A6822F440324A604A6843681A434A6094
:1004200001684A6822F480724A6001684A68036978
:1004300042EA03224A6001684A6822F040724A6038
:1004400001684A6883681A434A6001688A6822F42E
:1004500000628A6001688A68C3681A438A60816A98
:100460006FF07062D14201688A6822F070628A601F
:1004700001688A680CD0836A1A438A6001688A68B6
:1004800022F040528A6001688A68C36A1A4301E018
:1004900022F040528A6001688A6822F002028A6073
:1004A00001688A68037E42EA43028A6090F820105D
:1004B000002901684A680FD042F400624A6001686E
:1004C0004A6822F460424A6001684A68174C436AED
:1004D00004EB43331A4301E022F400624A600168EE
:1004E000CA6A22F47002CA620168CA6A838B104C1D
:1004F00004EB03531A43CA6201688A6822F400724B
:100500008A6001688A6890F8303042EA43228A6043
:1005100001688A6822F480628A6001688A6840699A
:1005200042EA8020886010BD0023014000E0FFFF08
:100530000000F0FFFEE70000014800F0DBB900001A
:1005400034040020014800F0D5B900003C0500202B
:10055000014800F0CFB90000DC040020014800F0A1
:10056000C9B90000D4030020014800F0C3B900005D
:10057000A8070020014800F0BDB90000F4050020E4
:10058000014800F0B7B900000808002001681823EE
:10059000CAB2103AB2FBF3F2054B6FF30901032A1A
:1005A0009B5CC36500D9091D816508467047000042
:1005B000DCA8000810B5014600208B698A6A4FF05C
:1005C000C07453B1B3F5005F15D072B1012A0CD0DD
:1005D000022A0AD0032A09D104E01AB1012A06D05E
:1005E000022A03D1C96AC90100D5012010BDC96A18
:1005F000A142FAD010BD002AF7D0012AF2D0022A77
:10060000F3D0032AF3D010BD30B50468256825F473
:1006100080252560046863608368402B036803D0ED
:1006200099600068C26030BD9A600068C16030BDEA
:10063000704772B6FEE7000078B50024009490F889
:100640003C20012A19D0012280F83C200A680723A7
:100650000568092A13D9EE680A3A02EB4202934070
:100660009E43EE600B788A680A3B03EB43039A4093
:100670000368DD682A43DA6010E0022078BD2E6945
:1006800002EB420293409E432E610B788A6803EB93
:1006900043039A4003681D692A431A614A681F236D
:1006A000072A13D205686E6B521E02EB820293403A
:1006B0009E436E630B790A885B1E92B203EB830341
:1006C0009A4003685D6B2A435A6327E005680D2A48
:1006D00012D22E6BD21F02EB820293409E432E63F6
:1006E0000B790A88DB1F92B203EB83039A400368FD
:1006F0001D6B2A431A6311E0EE6A0D3A02EB820287
:1007000093409E43EE620B790A880D3B92B203EB55
:1007100083039A400368DD6A2A43DA62164B056850
:10072000144A9D4206D10D68122D03D1556845F437
:100730008005556005689D4218D10B68102B01D0CB
:10074000112B13D1536843F4000353600968102937
:100750000CD10A490A4A0968B1FBF2F101EB8101A7
:10076000490000E0491E00910029FBD180F83C407F
:10077000002078BD002301400020014070000020CF
:1007800040420F0070B504004FF0000503D0206C0C
:10079000002610B107E0012070BD204600F01CF8D3
:1007A000666484F83C60206CC00610D4206C20F491
:1007B000885040F0020020642046FFF727FE666460
:1007C000206C20F0020040F00100206400E00125D0
:1007D00084F83C60284670BD10B586B004461421EC
:1007E0006846FFF799FD1149206888421CD11048DE
:1007F0000021026842F480720260006800F4807098
:1008000005900B481438026842F00102026000684B
:1008100000F001000590072000900320CDE90101C0
:100820006946044800F0EAF906B010BD0020014016
:1008300044380240000002402DE9F0410446876D33
:1008400000F0DAFA064694F835000025022806D0B2
:100850008020606584F834500120BDE8F081206874
:10086000016821F0160101602068416921F08001D2
:100870004161206C08B9A06C20B12068016821F0AA
:10088000080101602068016821F0010101600CE0AD
:1008900000F0B2FA801B052807D9202060650320EC
:1008A00084F8350084F83450D7E720680068C00722
:1008B000EED194F85C103F208840B860012084F8A5
:1008C000350084F834500020C7E790F8351002292D
:1008D00003D08021416501207047052180F8351043
:1008E0000068016821F0010101600020704790F864
:1008F000350070472DE9F84304464FF00009CDF864
:10090000009063484FF41651A56D0068B0FBF1F7F5
:100910002E6894F85C10082000FA01F131420FD0E3
:1009200021680A6852070BD50A6822F004020A609F
:1009300094F85C108840A860606D40F0010060652C
:1009400094F85C104FF0010808FA01F0304208D02A
:1009500021684969090604D5A860606D40F002006D
:10096000606594F85C1004208840304208D021680B
:100970000968890704D5A860606D40F004006065CF
:1009800094F85C1010208840304218D02168096823
:10099000090714D5A86020680168490304D50068D8
:1009A000000308D5A16C07E00168C90503D40168FC
:1009B00021F008010160216C09B12046884794F8B4
:1009C0005C1020208840304231D021680968C90677
:1009D0002DD5A86094F8350005282068016806D058
:1009E000490347D5006800031DD4616C1CE021F069
:1009F000160101602068416921F080014161206C8D
:100A000008B9A06C20B12068016821F008010160DC
:100A100094F85C103F208840A86084F8358084F802
:100A20003490216D1FE0E16B09B120468847606D6D
:100A300000282BD0606DC00714D0052084F8350045
:100A40002068016821F0010101600098401C0090BD
:100A5000B84203D820680068C007F6D184F8358012
:100A600084F83490E16C002910D001B02046BDE834
:100A7000F04308470168C905D5D4016821F0100189
:100A8000016084F8358084F83490CCE7BDE8F883C1
:100A9000700000202DE9F041044600F0ADF9064653
:100AA0005CB1022084F83500002584F834502068B9
:100AB000016821F0010101600DE00120BDE8F08135
:100AC00000F09AF9801B052805D9202060650320D5
:100AD00084F83500F2E720680068C007F0D122688A
:100AE000116820480140D4E901031843D4E90336D2
:100AF0003343184363691843A3691843E3691843F0
:100B0000236A18430843616A042903D1D4E90B130B
:100B100019430843106020684069666A20F00701A5
:100B200030460E43012704280CD1A06A0643E06A30
:100B300040B12046FFF73EFD20B14020606584F8BB
:100B40003570BAE7206846612046FFF71FFD94F82C
:100B50005C203F2191408160656584F835700020FC
:100B6000ACE700003F8010F02DE9F0410446866DAF
:100B700090F83400002501280DD0012084F83400BD
:100B800094F835700020012F07D084F83400022536
:100B90002846BDE8F0810220FBE7022784F8357083
:100BA00060652046FFF730FD94F85C103F208840D8
:100BB000B0602068016841F016010160206C20B12E
:100BC0002068016841F0080101602068016841F077
:100BD00001010160DCE7000070B5044600F00CF98B
:100BE0000546601C02D004480078044400F004F973
:100BF000401BA042FAD370BD640000202DE9F84FDD
:100C0000DFF8BCA1002201250AF1040B03264FF0F6
:100C10000F090BF1040E00BF0B6805FA02F4234024
:100C2000A34270D10F7907F00307012F01D0022FE3
:100C300016D187684FEA420806FA08FC27EA0C0733
:100C4000D1F80CC00CFA08FC4CEA070CC0F808C03C
:100C50004768A7430C79C4F3001494403C434460B4
:100C60000C79E443A4070AD0C4684FEA420C06FAA0
:100C70000CF7BC438F6807FA0CF72743C7600C7961
:100C800004F00304022C12D1D40800EB840CDCF82D
:100C900020405707FF0E09FA07F824EA0804D1F8A4
:100CA000108008FA07F848EA0408CCF820800468A5
:100CB0004FEA420C06FA0CF7BC430F7907F0030722
:100CC00007FA0CF7274307604C6814F4403F70D0D4
:100CD0003C4C276847F480472760246822F00307CC
:100CE00004F480440094384C07EB040CDCF808480A
:100CF00097074FEA177809FA08F7BC43334FB84211
:100D000002D1002724E054E0314FB84201D101273D
:100D10001EE0304FB84201D1022719E02E4FB842F1
:100D200001D1032714E02D4FB84201D104270FE071
:100D30002B4FB84201D105270AE02A4FB84201D112
:100D4000062705E0284FB84201D1072700E0082711
:100D500007FA08F72743CCF80878DAF80040574636
:100D6000D1F804C09C435FEACC3C00D51C433C60F6
:100D7000DBF800405F46D1F804C09C435FEA8C3C3E
:100D800000D51C433C60DEF800407746D1F804C033
:100D90009C435FEACC2C00D51C433C60084F0C37C9
:100DA0003C68D1F804C09C435FEA8C2C00D51C43FE
:100DB0003C60521C102AFFF42FAFBDE8F88F0000F2
:100DC000003C014044380240003001400000024035
:100DD0000004024000080240000C024000100240E3
:100DE0000014024000180240001C02400AB1816158
:100DF00070470904FBE70000014880687047000065
:100E000064000020704770472DE9F04101680446F6
:100E10004A694E6890F83E000025D743FA0506D48B
:100E2000F243D20503D46FF4807201254A61B905FB
:100E300008D4F143C90505D422686FF4007145F068
:100E400002055161790525D4F143C90522D4638D8A
:100E500094F83D10226B202808D13BB9212910D0ED
:100E600029290ED0282901D1212A0AD022686FF41D
:100E70008061516145F00405102806D0402804D057
:100E800008E0204603F084FC04E02068016841F497
:100E900000710160380508D4F043C00505D421680D
:100EA0006FF4006045F008054861002D07D0206C04
:100EB000284320642046BDE8F04103F021B8BDE896
:100EC000F0812DE9F047026800215368C66A90F866
:100ED0003E4090F83D50102C12D0402C10D0046CA5
:100EE000002C7DD05469E443A6077AD4DE43B605CE
:100EF00077D4036C03B19169BDE8F04703F024BCDB
:100F0000976951694FF42A0CC9435FEAC1784FF0E1
:100F10002A4904D066452AD04E4528D010E0DE4349
:100F2000B6050DD4C16A614501D1012103E0C16A52
:100F3000494501D10821C162BDE8F04703F06EBB0D
:100F40000E0716D4DE43B60513D4416CC9B2116145
:100F5000416B09B1C96B29B9816B002907D0C96BF5
:100F6000002904D00068416841F400614160BDE897
:100F7000F0878E0706D4DE43B60503D4BDE8F047FC
:100F800003F0C0BAFE43526876074FEA02521DD4FE
:100F9000002AECDB0A0608D4DA43520505D44907D7
:100FA00005D5BDE8F04703F051BA4907DFD4D9436E
:100FB0008905DCD4212D05D0402CD8D1BDE8F047DF
:100FC00003F072BBBDE8F04703F0FEB9002ACEDBA8
:100FD0004A060BD4DA43520508D4490708D501E084
:100FE0000DE00EE0BDE8F04703F0B6B84907BED407
:100FF000D9438905BBD4BDE8F04703F044B89169F3
:1010000070E7E10606D4D943890503D4BDE8F0476B
:1010100003F000BC2821212D27D0292D25D06506DD
:1010200055D4DD436D0552D4640752D590F83D3058
:10103000448D002C9BD01269446A2270426A521C73
:101040004262428D521E4285428D002A8FD12A2B48
:101050008DD10268536823F48063536022220263B7
:1010600080F83D1000F04AFB81E7250623D4DD43DC
:101070006D0520D4640720D590F83D30448D002CB8
:10108000F2D0446A24781461426A521C4262428D52
:10109000521E4285428D002AE6D1292BE4D10268F6
:1010A000536823F4806353602122026380F83D106B
:1010B00000F025FB5BE76107D6D4D9438905D3D47B
:1010C000418D0029D0D0416A097811610AE0610799
:1010D000CAD4D9438905C7D4418D0029C4D0116928
:1010E000426A1170416A491C4162418D491E418525
:1010F0003DE7704770B5040025D094F83D00002509
:1011000020B984F83C50204600F046FA242084F8A8
:101110003D002068016821F001010160206801683C
:1011200041F4004101602068016821F40041016040
:1011300001F0BCFD4D4A6168914201D84C4900E084
:101140004C49884201D2012070BD4B492368B0FB55
:10115000F1F15E6826F03F060E435E6063689342DD
:1011600006D94FF4967359434FF47A73B1FBF3F1F8
:101170002368491C1E6A26F03F06314319626168E4
:10118000914210D84900401EB0FBF1F2521CC2F34C
:101190000B02042A01D2042022E0B0FBF1F0401C33
:1011A000C0F30B001CE0A268F2B301EBC10303EB38
:1011B0000116431EB3FBF6F35B1C43F480431B058F
:1011C00049D092B301EBC10202EB0111401EB0FB0A
:1011D000F1F0401CC0F30B0040F4804040F40040AC
:1011E0002168CA694CF6FF739A431043C861D4E979
:1011F000071001432068026822F0C0021143016019
:10120000D4E9030101432068826848F2FF339A431E
:1012100011438160D4E9050108432168CA6822F0BE
:10122000FF021043C86001E00EE016E0206801688C
:1012300041F0010101602564202084F83D00256310
:1012400084F83E50002070BD01EB4106431EB3FB05
:10125000F6F35B1CB3E70120C2E701EB4101401E3E
:10126000B0FBF1F0401CC0F30B00B7E7A086010013
:1012700080841E0000093D0040420F00704708F0C6
:101280008BB908F08AB900002DE9F84F1F46904647
:101290008A460446DDF82890FFF7AEFD054694F82F
:1012A0003D00202875D1192301226C492046009564
:1012B00003F084FB0028F5D194F83C00012868D0A5
:1012C000012084F83C0020680168C90703D1016847
:1012D00041F0010101602068016821F400610160B2
:1012E000222084F83D00102084F83E000026266469
:1012F000C4F824806785608D20855948E0622B46BC
:101300004A465146204602F09BFF002878D1208DA6
:10131000544F68B1012814D002282068016816D003
:1013200041F480610160206841698069009087E034
:101330002068416981690091016841F40071016090
:101340007EE02068016821F480610160F0E721F40B
:10135000806101602068016841F40061E2E70328D0
:1013600048D801280AD0022814D04B46002239461A
:101370002046009503F022FBD8BB27E02A464946C9
:10138000204603F09AFBA0BB20680069616A0870E0
:101390004DE061E04B46002239462046009503F0BF
:1013A0000DFB30BB2068016841F4007101602068CA
:1013B0000069616A0870606A401C6062218D491E84
:1013C0002185618D491E618521682EE020680168B4
:1013D00021F48061016020680069616A0870606AB8
:1013E000401C6062208D401E2085608D401E6085FF
:1013F000D0E705E02A464946204603F05EFB10B1DF
:101400000120BDE8F88F20680069616A0870606A91
:10141000401C6062218D491E2185618D491E6185B8
:1014200021684A69D24352070AD409690170606A87
:10143000401C6062208D401E2085608D401E6085AE
:10144000208D00288BD1202084F83D0084F83E6058
:1014500084F83C600020D4E70220D2E702001000AC
:101460000000FFFF040001002DE9F84F1F469046E1
:101470008A460446DDF82890FFF7BEFC054694F83E
:101480003D0020287FD119230122404920460095A4
:1014900003F094FA002876D194F83C00012872D029
:1014A000012084F83C0020680168C90703D1016865
:1014B00041F0010101602068016821F400610160D0
:1014C000212084F83D00102084F83E000026266488
:1014D000C4F824806785608D20852D48E0622B4606
:1014E0004A465146204602F021FF90B920684169E2
:1014F0008069009036E02A464946204603F010FBFA
:1015000050B1206C042804D12068016841F40071B6
:1015100001600120BDE8F88F606A216800780861E9
:10152000606A401C6062618D491E6185218D491E83
:1015300089B2218522685369DB435B070BD451B123
:1015400000781061606A401C6062608D401E60859A
:10155000208D401E20852A464946204603F008FA81
:101560000028CED1208D0028C5D154F83D0B01684C
:1015700041F400710160202004F81E09E6776677C7
:101580000020C7E7FFE70220C4E7000002001000C8
:101590000000FFFF704770472DE9F04786B0064610
:1015A00014216846FEF7B8FE4C4ADFF834A13168D2
:1015B0004B481225012700244FF003084FF004097F
:1015C0000AF1100A91425BD1016841F00201016009
:1015D0000068694600F0020005904FF440708DE805
:1015E000A1034048FFF70AFBDAF8001041F40011AC
:1015F000CAF80010DAF800003C4D00F40010059025
:1016000039487F06E5E8020740204FF48068A5E8E6
:101610001101364845F81449AC61EC612C626C62EA
:10162000FFF738FA08B1FFF704F87563AE632F4D82
:101630002D48603590382860C5E90174C5E9034834
:101640006C61AC61EC612C6228466C62FFF722FA97
:1016500008B1FEF7EEFFB563002205211F20AE633F
:1016600000F0FCFB1F2000F0EBFB002205212020F6
:1016700000F0F4FB202000F0E3FB06B0BDE8F087AB
:101680001B4A9142F9D1016841F0040101600168EF
:1016900001F004010591016841F001010160006859
:1016A000694600F00100059050158DE8A10311482E
:1016B000FFF7A4FA4FF480708DE8A10369460E4845
:1016C000FFF79CFADAF8001041F40001CAF80010A4
:1016D000DAF8000000F400000590CEE70054004066
:1016E0003038024000040240A0600240D4030020D1
:1016F000005C004000080240000002407047704754
:101700002DE9FF4104460068816800917749784ED1
:101710004FF04027884201D1324600E03A469268B5
:10172000019240688846029001D1304600E0384678
:101730004068039060684FF00105B0F5007F1CD051
:10174000D8B1900705D50398000602D5204603F0CE
:101750003DFA0098C0070FD0029840067FD5216857
:101760002046CA68E16A8B1CE3620A80618E491ECA
:101770006186618E002967D071E00098800719D5D5
:101780000298000616D5616A20468A1C62622268A9
:101790000988D160618D491E6185618D51B90168EB
:1017A0004A6822F0A0024A60418E19B980F841507F
:1017B00000F072F90198C00705D00398400602D5E1
:1017C000204603F0D3F90198400622D503988006FD
:1017D0001FD52168414501D1304600E038464068B8
:1017E00020F0600101D1304600E0384641602068B9
:1017F000416821F0A00141602068C16880680190C3
:1018000084F84150606C40F002006064204600F0B3
:1018100049F90098000767D50298800664D52068CA
:10182000416821F0A00141602168414501D1304665
:1018300000E03846406820F0600000D03E4670600E
:1018400020688068009043E001684A6822F06002E6
:101850004A60418D19B980F8415000F01DF9009897
:1018600040061ED5029880061BD52068416821F0ED
:10187000600141602168414501D1304600E03846B1
:10188000406820F0A00101D1304600E038464160B8
:1018900084F84150606C40F002006064204600F023
:1018A00001F9019800071FD5039880061CD521680F
:1018B000414501D1304600E03846406820F0A000A4
:1018C00000D03E4670602068416821F060014160B0
:1018D00084F84150606C40F00400606404B020461D
:1018E000BDE8F04100F0DEB8BDE8FF8100380040FF
:1018F000003400402DE9F84F044690F841001546A9
:1019000089464FF0000AD346012802D04FF0020A60
:1019100084E0E1B3DAB3D3B394F8400001283FD0B8
:10192000012084F84000E26261622068C06900F032
:101930000700032836D0052834D023856385238605
:10194000A4F83230C4F844B0052384F84130E66B83
:101950004C4B3364E66B4C4BF363E66B4B4BF364DD
:10196000A66BC6F840B0A66BC6F83CB0A06BC364CB
:101970002068C369DFF8188103F44073454E4FF0C7
:101980004027B3F5007F16D0ABB1C26900E004E098
:10199000C2F30122032A45D047E00120BDE8F88FB9
:1019A0000220FBE74FF6FF7000EA430020856085C8
:1019B00020866086C6E7238E404501D1314600E08F
:1019C00039460C31E06BFFF7CFF82068404501D174
:1019D000304600E03846406840F0010001D1314611
:1019E00000E039464860238D2268494602F10C0226
:1019F000A06BFFF7B9F82068416841F0020138E0B8
:101A000040453CD13046C06940F4806000D03E463D
:101A1000F0612068C16941F48061C16184F840B01F
:101A20005046BBE7C26882680092238D404501D1D1
:101A3000324600E03A460C32A06BFFF795F8216879
:101A4000414501D1314600E03946496841F0020183
:101A500001D1304600E038464160238E21682A4695
:101A600001F10C01E06BFFF77FF82068416841F05D
:101A7000010141602068C1694905C1D5CEE73846FA
:101A8000C1E70000094D00082D4C0008B54C0008C6
:101A9000003800400034004010B506F089FF00BF58
:101AA00010BD70477047416B084700002DE9F047B3
:101AB000040005D094F841004FF0000818B109E087
:101AC0000120BDE8F08784F84080514860632046DB
:101AD00000F0A6F8022684F841602068C16940F64B
:101AE000BF77B943C1612068066260694FF400792D
:101AF00002282FD0E06870B12025A068202800D8E7
:101B00006D00012000F0ACFE216949451FD1E1685C
:101B100019B1A90002E01025EFE7E900B0FBF1F0F0
:101B200000EB800061694000B0FBF1F0401D0A212C
:101B3000B0FBF1F000F00101401A40080902821EDA
:101B4000FE2A09D3606C40F010006064B8E7B0FB77
:101B5000F5F0E5E7022000212269084302432068EE
:101B60000262D4E901010843A269E1681143084314
:101B70002168CA69BA43104340F40060C861206A12
:101B800001283AD12348606323482168234A4FF053
:101B90004023814201D1114600E01946C96921EA7A
:101BA000070101D1154600E01D46E9612168814227
:101BB00001D1114600E019460E622568854201D127
:101BC000114600E01946C9698EB2616849451BD0CB
:101BD000D1B100212789B4F80CC047EA0C07B4F84A
:101BE00018C04CEA010C47EA0C07B9B2314341F482
:101BF0000061854200D01A46D161C4F844800120BA
:101C000084F8410000205CE74FF48071E2E70000B7
:101C1000134D000801170008003800400034004050
:101C20002DE9F04786B0064614216846FEF774FB9E
:101C30003F493068884278D13E480024016841F429
:101C400000410160006800F40040059039481038F8
:101C5000016841F004010160016801F0040105918F
:101C6000016841F0010101600068022500F00100F7
:101C700005904FF4A4500090CDE901540627DFF8F9
:101C8000B8A0CDE9034769465046FEF7B7FFA80361
:101C90000090CDE90154CDE9034769462748FEF796
:101CA000ADFF4FF40069CDF80090CDE90154052057
:101CB000CDE90340C84669465046FEF79FFF214DD7
:101CC0001F48E5E8020440200701A5E891014FF410
:101CD000005865E806841B482C626C62FEF7DAFE49
:101CE00008B1FEF7A6FCB563AE63164D1448603527
:101CF000483828600005C5E9010405F10C0080E8BA
:101D00009002C5E906842C6228466C62FEF7C2FE8A
:101D100008B1FEF78EFCF563002205213320AE6387
:101D200000F09CF8332000F08BF806B0BDE8F08797
:101D3000003C0040403802400008024000000240E1
:101D400088600240DC04002000BF704706F030BE0F
:101D50000248816802781144816070476400002065
:101D60000B4810B5016841F400710160016841F44D
:101D700080610160016841F480710160032000F01E
:101D80008DF8002000F006F800F03EF8002010BDAD
:101D9000003C024010B5014688B000222D2000F022
:101DA0005DF82D2000F04CF813480024016841F440
:101DB00080710160006805A900F480700690684693
:101DC00000F04EFF00F072FF0C494000B0FBF1F153
:101DD0000C480B4A491E026040F2E732C0E9032476
:101DE000C0E9011401F01CFC10B1012008B010BDC5
:101DF000044801F0A9FCF9E74038024040420F00D6
:101E000000200040680800200C4882B0016841F4BE
:101E100080410160006800F4804000900748001F86
:101E2000016841F0805101600068002200F080509C
:101E300000900F21901E02B000F010B8443802400C
:101E4000002809DB00F01F020121914040098000B9
:101E500000F1E020C0F8001170470000F0B40E4B14
:101E60001B680C46C3F30223C3F10705042D00D9F8
:101E70000425191D072901D2002300E0DB1E0126DD
:101E800006FA05F1491E214099409E40761E1640F3
:101E90003143F0BC06F034BD0CED00E0064900F023
:101EA000070208684FF6FF03184040EA0220034A81
:101EB00010430860704700000CED00E00000FA05D8
:101EC00070470068416200207047F0B50368586AA7
:101ED00039B19C6A4FF4827600EB144400204D1E09
:101EE0000AE040EA024098620FE006EB8007DF5903
:101EF000401C04EB1744C0B2A842F6D344EA0240A7
:101F00004FF4807202EB810158500020F0BDD0F8F0
:101F1000040404F01CBCC1EBC10200EB8202D0F847
:101F20000404926C04F089BBC1EBC10200EB820295
:101F3000D0F80404D2F8082204F0D3BBD0F804048B
:101F400004F007BC70B504460B0601F00F00C0EBAF
:101F5000C00104EB81014FF001024FF0000503D5F1
:101F600081F83D203C3103E081F8FD5101F5FE711F
:101F7000087094F8BC03012808D084F8BC232068BA
:101F800004F0AAFF84F8BC53002070BD022070BD8D
:101F900070B5044601F00F006268904201D901203B
:101FA00070BD0B0601F00F01C1EBC10104EB810113
:101FB0004FF001024FF0000503D581F83D203C3180
:101FC00003E081F8FD5101F5FE718D70087094F801
:101FD000BC03012808D084F8BC23206805F076F9FA
:101FE00084F8BC53002070BD022070BD01F00F01C9
:101FF000C1EBC10100EB8100D0F8140270472DE95C
:10200000F04104460F0601F00F00C0EBC00104EBE5
:1020100081014FF001064FF0000503D581F83D60C6
:102020003C3103E081F8FD5101F5FE7108708A60D2
:10203000CB704A7802B1C880022B00D10D7194F8A0
:10204000BC03012809D084F8BC63206804F09CFE1E
:10205000284684F8BC53BDE8F0810220FBE770B548
:102060000C4601F00F05C5EBC50100EB8101C1F87D
:102070001032C1F808220023C1F8143281F8FD3172
:1020800081F8FC51036901F5FE71012B00D10A6151
:102090002207027C006803D005F070F9002070BDB3
:1020A00005F05CF8FAE770B504460D4601F00F0044
:1020B0006168884201D9012070BD29064FF00006F1
:1020C0004FF0010207D5C0EBC00104EB810181F89C
:1020D0003D203C3107E0C5EBC50104EB810181F8EF
:1020E000FD6101F5FE718A70087094F8BC03012847
:1020F00007D084F8BC23206805F014F9280702D023
:1021000007E0022070BD217C04F57172206805F0A3
:10211000B1F884F8BC63002070BD70B50C4601F0C6
:102120000F05C5EBC50100EB81010B658A64002337
:102130004B65012381F83D3001F83C5F0369012BB9
:1021400000D10A612207027C006803D005F016F96D
:10215000002070BD05F002F8FAE700002DE9FC5FF1
:1021600005680446284605F03AFA00287ED1206822
:1021700005F061FA002879D0206805F05CFA800744
:1021800004D52168486900F002004861206805F024
:1021900052FAC10604F57170009034D52068816947
:1021A00021F0100181612F6A07F00F00C0EBC00021
:1021B00004EB8006C7F3434006F5FE76022802D002
:1021C000062811D01AE047F6F070074216D0C7F380
:1021D0000A1217462846F16805F031FAF0683844CB
:1021E000F060B069384408E008222846009905F0FC
:1021F00026FAB069C7F30A110844B0612068816902
:1022000041F010018161206805F015FA00034FF0DC
:10221000010A4FF0080B5BD50026206805F0EAF9AB
:102220000746DFF8689351E0F8074DD0F1B2206817
:1022300005F0F9F98046C00707D005EB4611C1F853
:1022400008AB3146204603F01FF85FEA087022D53C
:1022500005EB4611C1F808BB2068016C00EB461085
:102260000191D0F8082B494507D900E08BE1110412
:1022700003D54FF40041C0F8081B204600F0B0FA27
:102280000198484507D92069012804D12068012117
:10229000009A04F0EFFF5FEAC86004D505EB461131
:1022A0001020C1F8080B5FEA886004D505EB4611E1
:1022B0002020C1F8080B5FEA884005D505EB4610E1
:1022C0004FF40051C0F8081B7F08761C002FABD1DB
:1022D000206805F0B0F940034FF000095CD5206894
:1022E00005F081F90746002654E0F80750D0F1B216
:1022F000206805F086F98046C00723D006F00F025B
:102300000AFA02F0D5F834288243C5F8342805EBE0
:102310004610C0F808A9206901280FD1C6EBC600F5
:1023200004EB8000D0E911211144816436B9206D9D
:1023300020B920680121009A04F09CFFF1B22046E8
:10234000FFF7E9FD5FEA087003D505EB4611C1F818
:1023500008B95FEAC86004D505EB46111020C1F842
:1023600008095FEA486004D505EB46114020C1F832
:1023700008095FEA887004D505EB46110220C1F810
:1023800008095FEA086003D53146204602F0E2FF03
:102390007F08761C002FA8D1206805F04CF9002892
:1023A00011DAD5F8040820F00100C5F8040894F803
:1023B000F403012829D0204600F0F6F9206841698D
:1023C00001F000414161206805F035F900050BD5A9
:1023D000D5F80808C00702D0204600F029FA206886
:1023E000416901F400614161206805F024F9C004ED
:1023F00068D5D5F8040820F00100C5F804081021BC
:10240000206805F0C9F8002127E084F8F493002142
:102410002046FFF755FDD1E705EB41104FF67F321F
:10242000C0F80829D0F8003923F40013C0F80039A7
:10243000D0F8003943F00063C0F80039C0F8082B29
:10244000D0F8002B22F40012C0F8002BD0F8002B9B
:1024500042F00062C0F8002B491C60688842DBD85B
:10246000D5F81C0840F00110C5F81C08206B60B1BD
:10247000D5F8840840F00B00C5F88408D5F8440866
:1024800040F00B00C5F844080CE0D5F8141842F2EF
:102490002B000143C5F81418D5F8100840F00B00C4
:1024A000C5F81008D5F8000820F4FE60C5F800084B
:1024B000217C2068009A04F0DDFE2068416901F467
:1024C00080514161206805F0B6F8800415D5206878
:1024D00004F09AFC206805F075F8E06000F0E0FB7D
:1024E0000146227B206805F009F9204600F046F9F4
:1024F0002068416901F400514161206805F09BF8B2
:10250000000707D5204600F053F92068416901F023
:1025100008014161206805F08EF8C00208D500214D
:10252000204600F035F82068416901F480114161CE
:10253000206805F080F8800208D50021204600F0D0
:102540002BF82068416901F400114161206805F011
:1025500072F8400007D52046FFF7D9FC2068416992
:1025600001F080414161206805F065F840070AD517
:1025700020684568680702D52046FFF7DFFC206821
:10258000416829434160BDE8FC9F00000A30544F78
:10259000D0F8040404F032B9D0F8040404F03EB9D1
:1025A0002DE9F0418AB0040005D094F8BD032668F7
:1025B000002520B108E001200AB0BDE8F08184F8D0
:1025C000BC53204600F05EF8032084F8BD03F06B96
:1025D000C00500D42561206804F0BAFD04F11001A3
:1025E000282288466846FDF77EFE94E80F0004F036
:1025F00019FC0226C8BB0021206805F03FF8002026
:1026000001270EE0C0EBC00104EB810181F83D70B1
:1026100001F83C0FC880CD708D60CD60401CC0B209
:102620004D6161688142EDD8002011E0C0EBC0012E
:1026300004EB810181F8FD5181F8FC0181F8FF5123
:10264000C1F80452C1F80852401CC0B2C1F810527F
:1026500061688142EAD8282241466846FDF743FE78
:1026600094E80F0004F0BAFC10B184F8BD63A2E74F
:1026700084F8385084F8BD73206804F0A1FC002071
:102680009AE700002DE9F04186B00446142168461F
:10269000FDF742FE34492068884261D1334C4FF047
:1026A0000008206840F004002060206800F004006A
:1026B0000590206840F001002060206800F00100D3
:1026C0000590206840F0020020602068022500F09C
:1026D000020005900D208DE8210103260A27694696
:1026E0002348CDE90367FEF789FA28208DE8210108
:1026F00069462048CDE90367FEF780FA43F6234098
:102700008DE8210169461C48CDE90367FEF776FA9A
:10271000206840F000502060206800F000500590D4
:10272000206840F0804020602068002200F0804057
:10273000059005214A20FFF791FB4A20FFF780FB17
:10274000002205214B20FFF789FB4B20FFF778FB88
:10275000002205214D20FFF781FB4D20FFF770FB84
:1027600006B0BDE8F08100000000044030380240AF
:1027700000080240000002400004024070B5044618
:10278000C068012570B1022801D0FDF752FF29462B
:10279000D4F8040404F0AEF8D4F80404BDE87040A2
:1027A00004F061B80025F2E7D0F8040404F088B81A
:1027B000D0F8040404F08EB810B5044690F8BC03B9
:1027C00001280BD0012084F8BC0384F8381020685D
:1027D00004F082FF002084F8BC0310BD022010BD6D
:1027E000D0F8042400F57171104604F08FB810B5CC
:1027F0000446006894F8BC13012906D0012184F82E
:10280000BC13A16A012902D008E0022010BDA16911
:10281000012903D0816B41F480318163206804F089
:10282000A1FE206804F0BEFB002084F8BC0310BDAC
:1028300010B50446D0F8040404F0AAF82068D0F8D3
:10284000001E41F00101C0F8001E206A002804D0DB
:102850000248016841F00601016010BD10ED00E082
:1028600001460020012907D11049096811F400012F
:1028700003D0012900D10E4870470C48001F0168A1
:102880000068490200F03F0001D50A4900E00A490A
:10289000064AB1FBF0F07C321168C1F38811414364
:1028A0001068C0F30270B1FBF0F0704708380240C6
:1028B0000080BB0000127A000024F4002DE9F843E8
:1028C000054600684FF00109C1074FF0000601D12D
:1028D000400727D5DFF80C81C8F86860FEF78CFA4E
:1028E0000746414C05E000BFFEF786FAC01B0228F0
:1028F00057D820680001F7D468688101287A41EA36
:102900000070394984310860C8F86890FEF774FA9D
:10291000074604E0FEF770FAC01B022841D8206881
:102920000001F7D52878800752D52F48403001683C
:1029300041F08051016000682C4C00F08050009004
:10294000206840F480702060FEF756FA074604E0E5
:10295000FEF752FAC01B022823D82068C005F7D51D
:10296000214C7034206810F4407020D0A98901F403
:10297000407181421BD020681D4920F44070C1F88D
:1029800000900E6020602068C00710D0FEF734FA77
:10299000064641F2883707E0FEF72EFA801BB84260
:1029A00002D90320BDE8F88320688007F4D5E968E0
:1029B0000D48C1F301220830032A0BD0016821F42D
:1029C000F81101602068A989C1F30B010843206058
:1029D0000020E7E70268074B22F4F81219400A4387
:1029E0000260EFE7000047420038024000700040FC
:1029F000400E4742FFFCFF0F2DE9F0470E46050051
:102A000065D0DFF81481D8F80000F7B200F00700B5
:102A1000B04207D288F80070D8F8000000F0070034
:102A2000B04254D128683D4C810712D5400703D5E8
:102A3000206840F4E05020602878000703D5206823
:102A400040F4604020602068A96820F0F00008434E
:102A500020602878C0072DD03049686808390128DF
:102A600012D0022813D0032811D009688907002941
:102A70002DDA216821F0030101432160FEF7BCF942
:102A8000814641F2883A0EE009688903EFE7096858
:102A90008901ECE7FEF7B0F9A0EB0901514502D935
:102AA0000320BDE8F0872068696800F00C00B0EBF7
:102AB000810FEFD1D8F80010404601F00701B14274
:102AC00007D90770006800F00700B04201D001206C
:102AD000E7E72878400705D52068E96820F4E0504A
:102AE000084320602878000706D52068296920F46B
:102AF000604040EAC100206000F0F8F82168084A10
:102B0000C1F30311515CC8400649086006480068DB
:102B1000FFF740F90020C4E7003C024008380240BB
:102B2000E4A8000870000020680000202DE9F041B2
:102B3000FEF762F9444C0546206840F00100206031
:102B400005E000BFFEF758F9401B022847D820686F
:102B50008007F7D5206840F080002060FEF74CF930
:102B60000546394E00200836306041F2883704E0CF
:102B7000FEF742F9401BB84231D8306810F00C0F14
:102B8000F6D1FEF739F90546206820F45020206080
:102B900005E000BFFEF730F9401B64281FD820680D
:102BA0008003F7D4FEF728F90546206820F08070EE
:102BB000206004E0FEF720F9401B02280FD82068AF
:102BC0008001F7D4FEF718F90546206820F08060F0
:102BD000206007E0FEF710F9401B022802D903200D
:102BE000BDE8F08120680001F4D417491748091D99
:102BF0000860154916488431086013480C30016894
:102C000021F4F8510160016821F40051016001686C
:102C100041F41F010160016841F4001101600A489C
:102C20007430016821F001010160016841F0807198
:102C3000016009490748086008480068FFF7AAF8DA
:102C40000028CDD00120CBE700380240103000042E
:102C5000003000200024F4007000002068000020F4
:102C60000F2202600C4A136803F0030343601368E9
:102C700003F0F0038360136803F4E053C360126849
:102C80004FF4E05303EAD20202610448006800F006
:102C9000070008607047000008380240003C02400E
:102CA0000148006870470000700000200448054992
:102CB00000680968044AC1F38221515CC84070472A
:102CC0007000002008380240F4A8000804480549B4
:102CD00000680968044AC1F34231515CC84070473A
:102CE0007000002008380240F4A80008154810B50C
:102CF000006810F00C02144813D04110042A0FD0C1
:102D0000082A0ED10F4C241F2268236802F03F02CC
:102D10005B0207D52068C0F38810A0FB010106E024
:102D2000084610BD2168C1F38811A1FB00010023F2
:102D3000FDF7A8FA2168C1F30141491C4900B0FB25
:102D4000F1F010BD083802400024F4002DE9F84FDE
:102D500004006ED02078DFF84C93C007A9F1040579
:102D60004AD009F104000168C1F38101012908D0AA
:102D70000068C0F3810002280AD1D9F8000040029F
:102D800006D52868800337D560680028E1D033E095
:102D90006068B0F5803F10D0B0F5A02F286810D043
:102DA00020F480302860286820F480202860606843
:102DB000A8B1FEF721F806460DE0286840F48030FF
:102DC000F4E740F480202860F7E700BFFEF714F82E
:102DD000801B642873D828688003F7D50CE0FEF7C1
:102DE0000BF8064605E000BFFEF706F8801B6428D6
:102DF000F0D828688003F7D42078DFF8AC82800709
:102E00004FF0000A3ED5A748001D016811F00C0FD5
:102E100008D00068C0F3810002280BD1D9F8000067
:102E2000400207D42868800716D5E068012800D141
:102E300012E033E1E068B8B10120C8F80000FDF706
:102E4000DBFF064605E000BFFDF7D6FF801B02282A
:102E5000C0D828688007F7D52868216920F0F800D5
:102E600040EAC10028600DE0C8F800A0FDF7C4FFEB
:102E7000064604E0FDF7C0FF801B02281FD8286823
:102E80008007F7D42078000722D5864F87486169EC
:102E9000703771B101210160FDF7AEFF064604E015
:102EA000FDF7AAFF801B022809D838688007F7D5EC
:102EB0000EE0C0F800A0FDF79FFF064605E082E0A7
:102EC000FDF79AFF801B02287DD838688007F7D469
:102ED0002078400768D5DFF8CCB100270BF13C0B18
:102EE000DBF80000C0000BD4DBF8001041F080518B
:102EF000CBF80010DBF80000012700F080500090B4
:102F00006B4E3068C00510D4306840F4807030607B
:102F1000FDF772FF009005E0FDF76EFF0099401A83
:102F2000022850D83068C005F6D55E4EA0686C36D1
:102F300001280FD00528306810D020F00100306043
:102F4000306820F004003060A068B8B1FDF754FF8D
:102F500000900FE0306840F00100F4E740F004001A
:102F60003060F7E7FDF748FF0099411A41F28830D9
:102F7000814266D830688007F4D50EE0FDF73CFF4B
:102F8000009007E0FDF738FF0099411A41F28830C0
:102F9000814256D830688007F4D42FB1DBF8001096
:102FA00021F08051CBF80010A069C8B33D49091D3C
:102FB0000968C1F3810102294AD00228504607D08E
:102FC000C8F8600000E03CE0FDF716FF04463BE077
:102FD0004746C8F86000FDF70FFF064605E000BF52
:102FE000FDF70AFF801B02282BD828688001F7D440
:102FF000D4E907010843A16A2E4A490802EB0141BE
:10300000626A41EA8211084394F82C1040EA016197
:10301000C9F8001001203866FDF7EEFE044606E010
:103020003EE000BFFDF7E8FE001B022809D8286833
:103030008001F7D534E000BFFDF7DEFE001B02285B
:1030400002D90320BDE8F88F28688001F4D427E076
:103050000128F7D0D9F80000E26900F4800191421C
:103060001CD1226A00F03F01914217D147F6C0718E
:10307000626A0140B1EB821F10D1A26A4FF0FF33A8
:1030800000F4403103EB5202B1EB024F06D194F849
:103090002C1000F07060B0EB016F01D00120D1E77F
:1030A0000020CFE70438024000004742800E47422C
:1030B000007000400000FFFF7047000038B5016855
:1030C00004464A688868C043430606D5C30704D14E
:1030D000D3435B0601D4216C05E0830708D4D343B6
:1030E0001B0605D4616C01B02046BDE8304008479E
:1030F000830603D5430601D5C30551D4D3439B06AC
:103100004ED443060AD494F85130032B49D0636D52
:1031100043F004036365CB688B680093830609D48E
:10312000636D43F0010363658B6800930B6823F0C4
:1031300040030B60C00506D4606D40F00800606578
:10314000206880680090606D002829D02068416860
:1031500021F0E0014160012084F85100900701D482
:10316000D00722D02068416821F003014160114D51
:10317000E06C40B10565E06CFDF7A7FB18B1606D30
:1031800040F040006065A06C002809D00565A06C87
:10319000FDF79BFB002803D0606D40F040006065A8
:1031A00038BDC8688868009038BD2046FFF784FFA6
:1031B00038BD00001154000870B5040009D0606AE1
:1031C000002540B125616561A56294F8510040B1C8
:1031D0000CE0012070BD6068B0F5827FF4D0E5613D
:1031E000F2E784F85050204600F044F8022084F8BA
:1031F00051002068016821F040010160A088218908
:1032000000F4827001F404410843A18901F40061D3
:103210000843217C01F002010843217D01F00101F6
:103220000843218B01F400710843217F01F038012C
:10323000084394F8201001F080010843218D01F427
:103240000051084321680860A069042101EA104088
:1032500094F8241001F010010843216848602068A8
:10326000C16921F40061C1616565012084F85100E4
:10327000002070BD2DE9F04186B006461421684655
:10328000FDF74AF82949306888424CD12848002582
:10329000016841F4805101600068254900F48050C4
:1032A00014390590086840F001000860086800F0D3
:1032B00001000590086840F00200086008680224D8
:1032C00000F002000590C02003274FF005088DE8AC
:1032D000B10169461748FDF791FC08208DE8B1015E
:1032E00069461548FDF78AFC154C1448206078069D
:1032F00060604020C4E902050001C4E90405A5613D
:10330000E561256220466562FDF7C4FB08B1FDF763
:1033100090F9B464002205212320A663FEF79EFDE8
:103320002320FEF78DFD06B0BDE8F081003001409E
:103330004438024000000240000402405864024049
:10334000F40500202DE9F84F044690F850000027BE
:103350001D461646894601280DD04FF0010B84F812
:1033600050B0FDF749FD804694F85100BA46012857
:1033700004D0022793E00220BDE8F88FB9F1000FD6
:1033800073D0002E71D0032084F85100C4F854A0EB
:10339000C4F83090A686E686C4F838A0A4F83CA00D
:1033A000A4F83EA0C4F844A0C4F840A0A068B0F5BA
:1033B000004F09D12068016821F0400101602068B8
:1033C000016841F48041016020680168490603D426
:1033D000016841F040010160E068B0F5006F60688D
:1033E00003D030B3012E24D041E008B1012E1CD10E
:1033F000206B21680088C86006E020688168890722
:1034000009D5216B0988C160206B801C2063E08E88
:10341000401EE08609E0FDF7EFFCA0EB0800A842A3
:1034200002D3681C01D031E07DB3E08E0028E4D1E6
:1034300020E0206B21680078087306E0206881682E
:10344000890709D5216B09780173206B401C206323
:10345000E08E401EE0860AE0FDF7CEFCA0EB0800FF
:10346000A84203D3681C02D010E017E06DB1E08ED3
:103470000028E3D142462946204602F019F808B157
:1034800020206065A06818B106E0FFE7032706E08A
:103490002068C16880680090606D00B1012784F8E1
:1034A00051B084F850A0384666E700002DE9F0419D
:1034B000044690F850000026012809D0012784F81E
:1034C000507094F851000025012804D002264EE0E7
:1034D0000220BDE8F08189B182B1032084F8510057
:1034E00065652163A286E286A56365642564A58778
:1034F000E587A068B0F5004F02D00BE0012636E06A
:103500002068016821F0400101602068016841F4F1
:1035100080410160A16C18480864A16C1748C86319
:10352000A16C1748C864A06C0565E38E2268216B06
:103530000C32A06CFDF718FB38B1606D40F0100044
:103540006065012684F8517011E020680168490621
:1035500003D4016841F0400101602068416841F0F6
:10356000200141602068416841F00201416084F817
:1035700050503046ADE70000435400084D54000859
:103580002154000805F0EEBF7047704770470000F7
:1035900070B590F83C20012A32D0012480F83C40DC
:1035A000022280F83D2003685A689D6822F0700668
:1035B0000A6832435A60134B02689A4214D0B2F13F
:1035C000804F11D0104B9A420ED0104B9A420BD024
:1035D0000F4B9A4208D00F4B9A4205D00E4B9A429D
:1035E00002D00E4B9A4204D1496825F0800319435A
:1035F000916080F83D40002180F83C10084670BD85
:10360000022070BD0000014000040040000800409E
:10361000000C004000040140004001400018004040
:1036200010B5040003D094F83D0010B107E001206C
:1036300010BD002084F83C00204600F01FF8022056
:1036400084F83D00211D206802F072F8012084F802
:10365000460084F83E0084F83F0084F8400084F877
:10366000410084F8420084F8430084F8440084F860
:10367000450084F83D00002010BD000008B5114A47
:1036800001681148914211D1016841F004010160C3
:103690000068002200F00400009005211E20FEF7C3
:1036A000DDFBBDE808401E20FEF7CABB074A914279
:1036B00007D1016841F008010160006800F00800CE
:1036C000009008BD0008004040380240000C004057
:1036D00090F83D10012901D001207047022180F8A7
:1036E0003D1000681149884214D0B0F1804F11D0CC
:1036F0000F4988420ED00F4988420BD00E498842AC
:1037000008D00E49884205D00D49884202D00D49A3
:10371000884204D1816801F00701062903D00168BD
:1037200041F00101016000207047000000000140ED
:103730000004004000080040000C0040000401406C
:10374000004001400018004090F83D10012901D0D0
:1037500001207047022180F83D100168CA6842F0DC
:103760000102CA6000681149884214D0B0F1804F4C
:1037700011D00F4988420ED00E4988420BD00E4915
:10378000884208D00D49884205D00D49884202D0B0
:103790000C49884204D1816801F00701062903D051
:1037A000016841F001010160002070470000014004
:1037B0000004004000080040000C004000040140EC
:1037C000004001400018004070B5044690F83C00ED
:1037D0000025012817D0012684F83C60022084F8D7
:1037E0003D002068826822F0770222F47F428260E6
:1037F0000868502838D00DDC20284FD005DC90B365
:10380000102811D14AE0022070BD302846D040284F
:103810000AD13BE060282FD070280DD0B0F5805F32
:1038200003D0B0F5005F12D0012584F83D60002080
:1038300084F83C00284670BDCB68D1E9012120689E
:1038400001F0DAFF2068816841F0770109E0CB6878
:10385000D1E90121206801F0CFFF2068816841F49F
:1038600080418160E1E719E0CA684968206801F099
:10387000D5FF5021206806E0CA684968206801F039
:10388000DEFF6021206801F0C1FFCEE7CA68496809
:10389000206801F0C3FF40212068F4E72268014658
:1038A0001046F0E7704770B50446006801694FF0B4
:1038B0000005C943890715D4C168C943890711D4D4
:1038C000E91E016101202077206880698007204679
:1038D00002D0FFF7E7FF04E000F098F8204600F080
:1038E00096F8257720680169C943490717D4C1684C
:1038F000C943490713D46FF0040101610220207706
:103900002068806910F4407F204602D0FFF7CAFF8C
:1039100004E000F07BF8204600F079F82577206875
:103920000169C943090716D4C168C943090712D4FC
:103930006FF008010161042020772068C0698007CA
:10394000204602D0FFF7AEFF04E000F05FF820460B
:1039500000F05DF8257720680169C943C90617D4CE
:10396000C168C943C90613D46FF010010161082072
:1039700020772068C06910F4407F204602D0FFF70E
:1039800091FF04E000F042F8204600F040F825776F
:1039900020680169C943C90708D1C168C943C9077B
:1039A00004D1891E0161204600F032F820680169C7
:1039B000C943090609D4C168C943090605D46FF093
:1039C000800101612046FFF7E0FD20680169C943DD
:1039D000490609D4C168C943490605D46FF04001BE
:1039E0000161204600F02AF820680169C943890670
:1039F0000BD4C168C943890607D46FF02001016167
:103A00002046BDE87040FFF7C1BD70BD70477047EC
:103A100010B5044600680749884201D1FEF798F9BD
:103A200005492068884203D1BDE8104005F0B6BDC5
:103A300010BD0000002000400008004070477047A3
:103A400070470000F8B5016804460868CA684B6909
:103A500010F00F0F4FF000055AD003F0010602F4EA
:103A60009077374365D0C10705D0D10503D5216CC8
:103A700041F001012164410705D5D90703D0216C2C
:103A800041F002012164810705D5D90703D0216CDB
:103A900041F004012164010707D502F02001314300
:103AA00003D0216C41F008012164216C00293BD036
:103AB000800604D5900602D5204602F065F92068FC
:103AC0004069216CC0F3801001F0080101432046D9
:103AD0002BD002F024F920684069400621D52068E7
:103AE000143050E8001F21F0400140E80012002A85
:103AF000F5D1A06BA8B16C490165A06BFCF7E5FEA0
:103B0000002811D0A06B016D01B0BDE8F04008475E
:103B100083060ED593060CD52046BDE8F84002F08A
:103B200033B92046FFF78CFFF8BDFFF789FF256406
:103B3000F8BD266B2023012E79D1C60677D5D6068F
:103B400075D50868486800904869400640D5A16B63
:103B5000086840680004000CEAD0A28D8242E7D9D0
:103B6000E085C869B0F5807F2DD020680C3050E822
:103B7000001F21F4807140E80012002AF5D120686E
:103B8000143050E8001F21F0010140E80012002A23
:103B9000F5D12068143050E8001F21F0400140E8C2
:103BA0000012002AF5D184F83E30256320680C30DD
:103BB00050E8001F21F0100140E80012002AF5D162
:103BC000A06BFCF739FEA08DE18D401A81B229E08F
:103BD000A08DE18D401A81B2E08D0028A8D0002987
:103BE000A6D020680C3050E8002F22F4907240E8F4
:103BF0000026002EF5D12068143050E8002F22F066
:103C0000010240E80026002EF5D184F83E302563FD
:103C100020680C3050E8002F22F0100240E800230A
:103C2000002BF5D12046FFF70AFFF8BDFFE7050698
:103C30002BD5150629D594F83D002128F5D1A0688B
:103C4000B0F5805F01D12069B0B1206A411C2162CA
:103C5000216800784860E08C401E0004000CE0847D
:103C6000E3D12068C16821F08001C1602068C1688B
:103C700041F04001C160D8E7206A0088C0F3080025
:103C80004860206A801C2062E5E74006CDD55006DA
:103C9000CBD5CA68204622F04002CA6084F83D3085
:103CA00000F0C1F8C1E70000295C000870B504000D
:103CB00004D094F83D00002510B106E0012070BD4D
:103CC00084F83C50204600F023F8242084F83D007E
:103CD0002068C16821F40051C160204602F0B4F8A8
:103CE0002068016921F4904101612068416921F057
:103CF0002A0141612068C16841F40051C160256416
:103D0000202084F83D0084F83E00002070BD0000B3
:103D10002DE9F04186B0064614216846FCF7FCFA0E
:103D20003049306888425AD12F480024016841F058
:103D300010010160006800F0100005902A48143856
:103D4000016841F0010101600068694600F001006E
:103D500005904FF4C06000900220CDE901040320DB
:103D60000390072004902148FCF748FF214D20488C
:103D70004FF000672860C5E901744FF48068C5E919
:103D8000034880156C61C5E906402C6228466C62C8
:103D9000FCF780FE08B1FCF74CFCB563AE63154D33
:103DA000134860357830E5E802074020A5E81101A6
:103DB000104845F814496030AC61EC612C626C62CB
:103DC000FCF768FE08B1FCF734FC7563002205219E
:103DD0002520AE63FEF742F82520FEF731F806B045
:103DE000BDE8F0810010014044380240000002406C
:103DF00040640240A807002090F83E30202B0ED1EE
:103E000059B152B190F83C30012B08D0012380F811
:103E10003C300023036302F09DB80120704702206C
:103E20007047704770477047FEE700000148FCF795
:103E3000EBBF00002C0300200148FDF742B8000052
:103E40002C03002038B5806B002190F83D202B4BCF
:103E500046F2A8141B68B3FBF4F3C3EBC30303EBF4
:103E6000830300933BB15B1E009303681B689B05B3
:103E700005D5009BF6E7036C43F020030364436B16
:103E800003B1D963836B03B1D96303681C6824F45D
:103E900080641C604185436B03B11965836B03B17A
:103EA000196503681C6824F001041C6090F83D400B
:103EB0002023602C0BD0282434EA02020FD080F893
:103EC0003D3080F83E1000BFFDF713F938BD80F893
:103ED0003D3080F83E100164FCF794FF38BD026865
:103EE000136843F0010313600268136843F48063AE
:103EF0001360016380F83D40E6E700007000002099
:103F000070B5044690F83D0094F83E10102901D099
:103F1000402906D1222804D121680A6822F40062CF
:103F20000A60282131EA00024FF000054FF0200618
:103F300026D021684968090505D4602803D084F893
:103F40003D6084F83E50256320684168090537D5F7
:103F5000416821F400614160606B90F835203C4974
:103F6000012A11D00165606BFCF7AFFC38B3206803
:103F7000016821F00101016084F83D60606B1CE084
:103F8000256384F83D10DFE7A06B0165A06BFCF7AB
:103F90009CFCA0B120684169C943490605D4006969
:103FA000616A0870606A401C60622068016821F0E4
:103FB0000101016084F83D60A06B016D884710E04D
:103FC00094F83D10602910D04169C943490605D4D1
:103FD0000069616A0870606A401C60622046FDF7F3
:103FE00088F8206CC1071CD115E084F83D60256479
:103FF0004169C943490605D40069616A0870606A6D
:10400000401C60622068016821F0010101602046C7
:10401000FCF7F8FEE5E7810703D4410701D4000768
:1040200004D52068416821F4E061416094F83D00C6
:10403000216C49070BD5282809D10648E062256381
:1040400084F83D6084F83E502046FDF717F970BDB6
:10405000453E00080000FFFF01684A69D24352054F
:104060000FD46FF480624A61002140F8301F202293
:1040700042738173026942F00402026101730120FC
:1040800070470020704710B5C26A438D0168042B49
:1040900006D0438D032B08D0438D022B1DD012E098
:1040A0004A6822F480624A600CE04B6823F4806323
:1040B0004B60042A06D0022A04D001680A6822F460
:1040C00080620A6001680969426A1170416A491C8C
:1040D0004162418D491E418510BD012A30D0102A10
:1040E0002ED0042A30D0022A2ED00A6842F4007260
:1040F0000A6001680969426A1170416A491C41629B
:10410000428D521E4285026812690A70416A491C3A
:104110004162418D491E418501684A6822F440721E
:104120004A60202180F83D1090F83E200021402A6E
:1041300080F83E100CD012210163FDF7A0F810BDED
:104140000A6822F48062D3E70A6842F48062CFE70B
:104150000163FDF71FFA10BD38B590F83D10222914
:1041600014D1418D032912D901680969426A11707D
:10417000416A491C4162418D491E4185418D032997
:1041800004D10068416821F48061416038BDC26A91
:10419000022AFBD0012901D00029F7D1274946F294
:1041A000A81300220968B1FBF3F101EB8101009132
:1041B00001682023009C641E009422D00C68A40592
:1041C000F8D40C6824F480640C6001684C6824F412
:1041D000E0644C6001680969446A2170416A491CC5
:1041E0004162418D491E418580F83D3090F83E1076
:1041F00080F83E2040291DD012210163FDF73FF8D1
:1042000038BD046C44F0200404644C6824F4E06479
:104210004C6001680969446A2170416A491C416225
:10422000418D491E418580F83D3080F83E20FCF7E5
:1042300060FF38BD0263FDF7ADF938BD70000020A6
:104240002DE9F84F0446C06A1E4693460D46216884
:104250000A6842F480620A60082807D0012805D065
:1042600010F5803F02D0206B112804D1206801682E
:1042700041F4807101604FF001195B46002249460C
:104280002046009600F09AFB4FF4007840B1206879
:104290000068C00501D5C4F840800320BDE8F88F50
:1042A0002069DFF884A0B0F5804F0FD00620216888
:1042B00000EAD51747F0F000086133465A460AF184
:1042C0000601204600F0AEFB58BB03E0E8B240F028
:1042D00001001CE02168E8B2086133465A465146A5
:1042E000204600F09FFBE0B9206841698169009198
:1042F000016841F4807101605B4600224946204616
:10430000009600F05BFB0028C1D147F0F100216866
:10431000086133465A465146204600F083FB002888
:10432000BCD00120BAE7000002000100F8B5044645
:10433000C06A1E460D461746082807D0012805D03A
:1043400010F5803F02D0206B122804D1206801684C
:1043500041F480710160134600224FF001112046A4
:10436000009600F02BFB40B120680068C00502D524
:104370004FF4007020640320F8BD2069B0F5804F31
:104380000ED00620216800EAD51040F0F000086148
:1043900033463A460B49204600F044FB78B902E028
:1043A00005F0FE0000E0E8B22168086105493346E7
:1043B0003A46891F204600F035FB0028DCD001205A
:1043C000F8BD00000800010010B5C26A90F83D1069
:1043D00021290BD1418D51B1416A026809781161DF
:1043E000416A491C4162418D491E418510BD20230F
:1043F0000021082A13D0202A11D012F5803F0ED0B8
:104400000268546824F4E06454601122026380F866
:104410003E1080F83D3000BFFCF733FF10BD02684E
:10442000546824F4E06454600268146844F400742E
:104430001460016380F83D3090F83E2080F83E1013
:10444000402AE9D1FDF7A7F810BD000010B590F89B
:104450003D1090F83E30C26A048DB4B1212903D0DA
:10446000402B11D122290FD1418DE1B390F83E109C
:10447000402942D0416A026809781161416A491CA9
:104480004162418D491E418510BD2129E8D120237B
:104490000021082A13D0202A11D012F5803F0ED017
:1044A0000268546824F4E06454601122026380F8C6
:1044B0003E1080F83D3000BFFCF7E3FE10BD0268FF
:1044C000546824F4E06454600268146844F400748E
:1044D0001460016380F83D3090F83E2080F83E1073
:1044E000402AE9D100E002E0FDF755F810BD006870
:1044F000416821F48061416010BDBDE8104000F0CA
:10450000D3B8000078B590F83E50C26A036B90F8BB
:104510003D6000240168222E7AD1066D0EB9402D2F
:1045200076D0056D1DB90569B5F5404F09D0458DAB
:1045300005B3468D384D012E0ED0438D022B3AD057
:104540005DE04A698A6900920A6842F480720A60F2
:10455000016D491C016578BDAA4213D10A6822F495
:1045600080620A6001684A68120503D50A6822F46D
:10457000806216E04A698A6900920A6842F4007211
:104580000A6039E0082A10D0202A0ED0122B0AD057
:10459000042A03D0022A01D0102AE7D10A6842F483
:1045A00080620A6024E0012AE0D00A6822F4806276
:1045B0000A600168DEE7042A21D0022A1FD0102AEF
:1045C0001DD00B6823F480630B6001680B6843F413
:1045D00000630B6001684B681B0509D5AA4212D025
:1045E000012A10D0082A0ED0102A0CD0202A0AD076
:1045F00001684A6989690091046578BD08E00B6823
:1046000043F48063E5E74A6842F480524A60EFE78A
:10461000486988690090F0E70000FFFF90F83E10BD
:10462000402910D00169B1F5804F19D0016DA9B3AF
:10463000016D012910D1416C5FF0F10201F440716C
:1046400042EAD11106E0016D0029416C05D0C9B2E2
:1046500041F0010100680161704701F0FE01F9E7D6
:1046600090F83D102129416C09D0C9B241F00101F7
:1046700002681161416B29B1C96B49B902E001F0CF
:10468000FE01F5E7816B0029E6D0C96B0029E3D074
:104690000068416841F4006141607047FFE7416C88
:1046A000F02201F44071CBE710B590F83D10026D97
:1046B00022B3026D012A2FD0026D022A1DD12229B8
:1046C0002FD0428D0AB1212933D0428D002A14D136
:1046D000212912D101684A6822F4E0624A60016827
:1046E0000A6842F400720A6000210163202280F807
:1046F0003D2080F83E10FCF74EFF10BDC16C012933
:10470000816C02D0C1F3072108E00268C9B21161CF
:10471000016D891C016510BD816CC9B2026811610F
:1047200004E001680A6842F480720A60016D491C65
:10473000F0E7416A026809781161416A491C4162E7
:10474000418D491E418510BD38B50C4690F83D207D
:1047500000212825954302680B4605D051699169CF
:10476000009180F83C3038BD556825F4806555606F
:10477000E243540700D50121120601D5828900E0E9
:10478000028B80F83C3092B2FCF73DFB38BD000054
:104790002DE9F04190F83D40C26A002320261C4FCD
:1047A00001686FF48065082A01D0202A01D1282CE5
:1047B00004D0212C16D04D61BDE8F081C7624A6853
:1047C00022F4E0624A6001684D6101680A6822F4DF
:1047D00080620A60036380F83D6080F83E30FCF739
:1047E0004DFDE9E7C7622122026380F83D6080F851
:1047F0003E304A6822F4E0624A6001684D61016817
:104800000A6822F480620A60FCF779FFD4E70000AE
:104810000000FFFFF8B590F83D600446006841686D
:1048200021F4E06141602068002541690091016840
:1048300041F0010101602068016821F4806101609C
:1048400020684168090520D5474F222E48D02A2EDE
:1048500046D0616B096849686185618D19B1216C29
:1048600041F004012164416821F400614160606B02
:10487000FCF73DF8012808D0606B0765606BFCF71A
:1048800024F810B1606B016D8847608D08B3206813
:104890004169C943490708D40069616A0870606AC0
:1048A000401C6062608D401E608520684169C9437C
:1048B000490608D40069616A0870606A401C606239
:1048C000608D401E6085608D18B1206C40F0040042
:1048D0002064206C00B32046BDE8F840FFF710BB11
:1048E000A16B096849686185618D19B1216C41F03E
:1048F00004012164416821F400614160A06BFBF771
:10490000F6FF0128C1D0A06B0765A06BFBF7DDFFA8
:104910000028BAD0A06BB6E72A2E06D1256328203E
:1049200084F83D002046FCF7E9FE94F83D10202075
:1049300028290DD0216B222901D0222E07D12563F1
:1049400084F83D0084F83E502046FCF7D7FEF8BDC1
:104950000649E162256384F83D0084F83E50204614
:10496000FCF78CFCF8BD0000453E00080000FFFF8E
:1049700070B516460D4604460DE02046FFF76CFB69
:1049800008B1012070BD681C05D0FCF735FA801B0A
:10499000A84207D835B120684069C0434007ECD42D
:1049A000002070BD002044F8300F20216173A073F7
:1049B000216941F0200121612073E2E72DE9F047F0
:1049C0001E4690460D460446C1F30747DDF8209089
:1049D00008E0701C06D0FCF70FFAA0EB0900B0420B
:1049E0000FD876B12068012F18D0806925EA000021
:1049F0000004000C14D000214145EAD00020BDE89D
:104A0000F087002044F8300F20216173A0732169E2
:104A100041F02001216120730120F0E74069E5E7C2
:104A20000121E9E72DE9F0479A4691460E460446F2
:104A300000254FF02008C1F3074725E020684069B2
:104A4000C043400514D42068016841F4007101603E
:104A500021686FF480604861256384F83D8084F8A4
:104A60003E50206C40F00400206484F83C501FE06D
:104A7000B9F1FF3F08D0FCF7BFF9A0EB0A014945A7
:104A80000CD8B9F1000F09D02068012F13D080692C
:104A900026EA00000004000C0BD0CFE744F8305F9A
:104AA00084F80D80A573206940F0200020612573F3
:104AB0000120BDE8F0874069EAE72DE9F0410025D3
:104AC00090460E460446202717E04069C043C006C2
:104AD0000CD454F8301B6FF01000486144F81059A2
:104AE0006777A577206A2062257717E0FCF784F9BD
:104AF000A0EB0800B04208D83EB120684169C94324
:104B00004906E2D40020BDE8F08144F8305F6773C5
:104B1000A573206940F02000206125730120F2E791
:104B200070B516460D4604460DE02046FFF794FA90
:104B300008B1012070BD681C05D0FCF75DF9801B31
:104B4000A84207D835B120684069C0430006ECD4BC
:104B5000002070BD002044F8300F20216173A07345
:104B6000216941F0200121612073E2E770B5154908
:104B70000268154B4FF040248A4201D11A4600E0EA
:104B80002246D568C26A961CC6621580428E521EA5
:104B90004286428E002A14D102688A4201D1194607
:104BA00000E02146496821F0600100D023465960A9
:104BB000418D002905D14FF0010180F84110FCF72B
:104BC0006BFF70BD003800400034004070B5416A92
:104BD000144B8A1C426205680988134A4FF040242E
:104BE0009D4201D1154600E02546E960418D491EF0
:104BF0004185418D002914D10168994201D11146A6
:104C000000E02146496821F0A00100D02246516011
:104C1000418E002905D14FF0010180F84110FCF7C9
:104C20003BFF70BD003800400034004070B50146C5
:104C3000806BC969B1BB0168CA691D4BC2F301250C
:104C40001A4A4FF04024022D0CD0CD6915F4407F54
:104C500008D04D6825F001054D600168914212D1E0
:104C6000194611E0914201D1194600E021464968F8
:104C700021F0010100D02346596001684A6822F002
:104C800002024A6006E02146496821F0020100D094
:104C9000234659604FF00001418641854FF00101E4
:104CA00080F84110FCF7F8FE70BD000000380040AD
:104CB0000034004030B4806B01684A6822F003027F
:104CC0004A600F4A04680F494FF04023944201D1D3
:104CD0000A4600E01A46526822F0030200D0194644
:104CE0004A604FF00001418541864FF0010180F894
:104CF0004110416C41F00801416430BCFCF7D2BE68
:104D0000003800400034004010B5806BFCF7C9FE4D
:104D100010BD7CB5016804468868009094F8410095
:104D20000125042834D10098C00718D04868C04332
:104D3000400614D4C9682046E26A1180E16A891CE1
:104D4000E162618E491E6186618E41B901684A68DF
:104D500022F060024A6080F84150FCF7F5FF0098AD
:104D6000400615D520684168C943890610D44168BA
:104D700021F0600141602068C1688068019084F87A
:104D80004150606C40F0020060642046FCF78AFEEF
:104D900094F84100032834D10098800719D5216880
:104DA0004868C043000614D4626A20461288CA606C
:104DB000616A891C6162618D491E6185618D41B99D
:104DC00001684A6822F0A0024A6080F84150FCF76E
:104DD000BDFF0098000714D520684168C9438906C3
:104DE0000FD4416821F0A0014160206880680090E4
:104DF00084F84150606C40F0040060642046FCF789
:104E000051FE7CBDF0B500230A24302537261F460D
:104E100011E000BFB4EB107F02D905EB107C01E07C
:104E200006EB107C01F813C001EB430C00015B1C86
:104E30008CF80170DBB29342ECD3F0BD7FB5002457
:104E400015480094019402941249039401604FF4B0
:104E50008031C0E901140461047680F820400F49D4
:104E6000C0E90A140125C561C46080F8304045617D
:104E7000FBF788FC08B1FBF7DCFBCDE90045694690
:104E800005480294FBF7D8FB002801D0FBF7D1FBC3
:104E90007FBD000000200140E40200200100000F5F
:104EA000254808B5016841F480010160016801F4FA
:104EB00080010091016841F4001101600068002246
:104EC00000F40010009005210B20FCF7C7FF0B2019
:104ED000FCF7B6FF002205210D20FCF7BFFF0D20D7
:104EE000FCF7AEFF002205211020FCF7B7FF1020D1
:104EF000FCF7A6FF002205211120FCF7AFFF1120CF
:104F0000FCF79EFF002205213A20FCF7A7FF3A207C
:104F1000FCF796FF002205213B20FCF79FFF3B207A
:104F2000FCF78EFF002205214620FCF797FFBDE825
:104F300008404620FCF784BF3038024010B5044AD0
:104F40000021044803F0B8FD0349086010BD0000CB
:104F500028A80008D155000800000020F0B587B04F
:104F600014216846FBF7D8F922480024016841F073
:104F700080010160016801F080010591016841F044
:104F800004010160016801F004010591016841F02C
:104F900001010160016801F001010591016841F022
:104FA000020101600068144E00F002004FF4016538
:104FB0000590002229463046FBF718FF0F4F0022CC
:104FC000D0213846FBF712FF00950125CDE90154A9
:104FD000694630460394FBF711FED020CDE9000569
:104FE0000320CDE9024069463846FBF707FE07B0CB
:104FF000F0BD0000303802400000024000040240D2
:105000000D4810B50B4901600C49416000214FF477
:1050100080428160C0E9031241618161C161016226
:10502000FCF768F8002803D0BDE81040FBF701BB8F
:1050300010BD0000005400402C030020A086010099
:105040000D4810B50B4901600C49416000214FF437
:1050500080428160C0E9031241618161C1610162E6
:10506000FCF748F8002803D0BDE81040FBF7E1BA90
:1050700010BD0000005C004080030020A0860100FD
:105080000C490D4810B54A15C0E900120021012352
:105090008160C0E903324AF64442C0E90521C0E913
:1050A0000713FCF703FD002803D0BDE81040FBF711
:1050B000C0BA10BD003C0040940400200F4810B559
:1050C0000D4901604FF48271416000218160C1602F
:1050D0004FF400720161C0E90512C16101624162D1
:1050E00081620A21C162FEF767F8002803D0BDE89B
:1050F0001040FBF79EBA10BD003001409C05002017
:1051000010B586B0002417480094019402940394CB
:105110000494134905940160A721C0E90114642196
:10512000C0E903148461FEF77BFA08B1FBF781FA4A
:105130004FF48050009069460A48FEF745FB08B1DD
:10514000FBF777FA2020CDE9040404A90548FEF70F
:105150001FFA002801D0FBF76CFA06B010BD000062
:10516000000800405406002010B586B00024164800
:1051700000940194029403940494124905940160EC
:10518000A721C0E90114611EC0E903148461FEF780
:1051900047FA08B1FBF74DFA4FF48050009069468A
:1051A0000948FEF711FB08B1FBF743FA049404A980
:1051B00005480594FEF7ECF9002801D0FBF739FA11
:1051C00006B010BD000C00409C0600200E4810B533
:1051D0000C4901604FF4E1314160002181600C22F3
:1051E000C160C0E904128161C161FEF75FFD08B1D1
:1051F000FBF71FFA04498022BDE8104080390248BD
:10520000FEF7FABD001001406407002010B501222E
:105210000F49104801F0ECF908B1FBF70AFA0E4902
:105220000C4801F0DDFB08B1FBF703FA0B49094814
:1052300000F0DDFF08B1FBF7FCF9064801F04AFC7D
:10524000002803D0BDE81040FBF7F3B910BD000003
:1052500014000020B0080020D00100200802002027
:10526000FEE7FEE70148FCF779BF0000A00F002031
:105270000148FCF773BF0000A00F00200148FCF7B5
:105280006DBF0000A00F00202DE9F04103680D461E
:1052900004461E6C03EB4511D1F8080BD4F810E05E
:1052A0004FF400474FF0200C04F57172BEF1010F6E
:1052B00009D0DFF898E0764539D1020432D500BF35
:1052C000C1F8087B3FE0224B5FEA007E04D59E4296
:1052D00039D90004F4D436E05FEA806E02D5C1F813
:1052E00008CB30E010F0280F2DD19E4201D90004E8
:1052F000E6D4C5EBC50004EB8000D1F8101BD0F854
:105300000432C1F31201591AC0F81412D0F808126D
:105310001944C0F8081295B9D4F8100278B90121DF
:1053200020680AE080060AD5C1F808CB07E035B945
:10533000D4F8100218B90021184601F09BFFE9B219
:105340002046FCF7F1FD0020BDE8F0810A31544F02
:105350000A30544F2DE9F84F0E46C1EBC60100EB61
:10536000810481460568D4E914103C34884202D98E
:105370000120BDE8F88F081AA168814200D20846D2
:10538000C01C870805EB46181BE000BFA0EB010A14
:10539000A068504500D282460AF10300870899F8B8
:1053A000100000901FFA8AF3F2B22846E16802F07A
:1053B00019FAE16801EB0A00E060A16901EB0A005B
:1053C000A061D8F8180980B2B84205D3D4E9050124
:1053D000814201D20028D9D1D4E90501884208D8F8
:1053E00006F00F0101208840D5F834188143C5F834
:1053F00034180020BDE700000148FDF75FBE000043
:105400009C0500200148FCF74EBB000094040020DE
:1054100010B5806B0021C187C186FDF74DFE10BD20
:1054200010B5806B01684A6822F003024A60416D42
:1054300041F010014165012180F85110FDF73CFE5B
:1054400010BD10B5806BFEF79FF810BD38B505464E
:10545000846BFBF7D1FC024628680068C00523D4A2
:105460002068416821F0200141602068416821F0F6
:10547000020141606421204600F01AF818B1606D05
:1054800040F020006065A068002118B92068C2685B
:1054900080680090E186012084F85100606D18B1A9
:1054A0002046FDF709FE38BD2046FEF76BF838BDF3
:1054B00038B504461248134B0068B0FBF3F04FF4C4
:1054C0007A73584300906068B0F5827F0DD10B4627
:1054D000009200228021204600F016F870B1606D25
:1054E00040F020006065032038BD009830B1401EB8
:1054F000009020688068C0430006F6D5002038BDC3
:105500007000002000366E012DE9F8431E469146DA
:1055100088460446089DFBF76FFC401B351AFBF7D5
:105520006BFC074625480068C0F3CB30684338E081
:10553000701C37D0FBF760FCC01BA84203D215B12A
:10554000009860B32CE02068416821F0E0014160E0
:105550006068B0F5827F0BD1A068B0F5004F02D033
:10556000B0F5806F04D12068016821F0400101602E
:10557000A06AB0F5005F09D12068016821F40051EC
:1055800001602068016841F400510160012084F845
:105590005100002084F850000320BDE8F883002566
:1055A000401E00902068816838EA010004D0002184
:1055B0004945BDD10020F0E70121F9E77000002046
:1055C0000178407841EA0020704700F04BB90000B4
:1055D00010B5FFF71BFE104A0021104803F06CFACB
:1055E0000F4C0D4A0021606024320E4803F064FA2B
:1055F000094AA0606C3200210B4803F05DFA064AAC
:10560000206148320021094803F056FAE060206822
:10561000BDE8104004F056B94CA80008CB5500086E
:1056200000000020355600083956000831560008A1
:1056300000F06EB900F0A0B900F0DAB910B54FF083
:10564000E020006904F0FEFE012803D0BDE8104010
:1056500004F002BB10BD000070B596B03021684662
:10566000FAF75AFE14210CA8FAF756FE0025244832
:105670001195129513951495016841F080510160C0
:10568000006800F0805015901E48016841F4804188
:1056900001600068022400F4804015900126009407
:1056A00010200694CDE903600820CDE90750A8201A
:1056B000CDE9090407200B906846FDF747FB08B1C8
:1056C00072B6FEE70CA90F2081E831004FF4A0501C
:1056D0000F904FF48050109005210CA8FDF78CF925
:1056E00008B172B6FEE7C020CDE91204119611A8E8
:1056F000FDF7E4F8002801D072B6FEE716B070BDE1
:1057000040380240007000400248016841F47001D6
:105710000160704788ED00E00148FEF7C4B8000062
:10572000540600200148FEF7BEB8000068080020BB
:10573000F0B50268254C264D264E274F274B4FF0DB
:10574000804CA04209D0604507D0A84205D0B042A5
:1057500003D0B84201D0984204D122F0700E4A68BA
:1057600042EA0E02A0421BD0604519D0A84217D0D1
:10577000B04215D0B84213D0984211D0184DA8426B
:105780000ED0184DA8420BD0174DA84208D0174D87
:10579000A84205D0164DA84202D0164DA84203D10A
:1057A00022F44075CA682A434D6922F080022A43D8
:1057B00002608A68C2620A688262A04201D098428E
:1057C00001D10969016301214161F0BD000001407F
:1057D0000004004000080040000C004000040140AC
:1057E00000400140004401400048014000180040D2
:1057F000001C00400020004010B5846842EA0322EB
:1058000024F47F440A432243826010BD826822F060
:1058100070020A4342F007018160704710B5036AC5
:10582000046A24F001040462846924F0F00444EA68
:10583000021423F00A020A438461026210BD10B50B
:10584000036A23F0100303628369046A23F470433C
:1058500043EA023224F0A00343EA011182610162AB
:1058600010BD0000244802F0D1F9182003F0E4FD37
:10587000234922488860642003F0E2F8DFF884803E
:10588000214C4FF000094D46C4F8009003F0E0FDB4
:10589000002802DA642003F0D3F820680228F2D14D
:1058A000C8F80C50D8F80410491EC8F8041001D5E7
:1058B000C8F804500020124AD4E9025601461432B6
:1058C0000BE000BF02EB40037718801CB7F800C064
:1058D000A3F800C03F885F80891C8D42F2D80B4A34
:1058E000ABB2A2F58061044802F002FA6A000749EF
:1058F000032003F0BBFDC6E78C57002009790008A0
:1059000098B800201C020020E4C80020ACBC002095
:1059100008B5322003F0CEFD134C00BF03F0D6FDD6
:10592000002802DA642003F08BF82068032805D0F1
:105930000528F3D1D4E902210C4811E0D4E9022171
:105940000B48FAF7D0FC4FF480600A4D0090084AEB
:1059500069462846A36802F060F829460348009A81
:1059600002F028F9DAE7000004C900209858002066
:10597000C4C40020C4C0002008B50021174802F0AC
:1059800045FCEF200023024600901946134802F020
:1059900073FF182003F0CCFD12491148124D134C2F
:1059A000C1F8040003F0D0FD002802DA642003F0FF
:1059B00047F820680128F5D1A868401EA86001D5E5
:1059C0000020A8606068012806D00123D4E90221E4
:1059D000024802F0FBFBE5E70023F7E798570020B9
:1059E0002579000898B800201C020020F4C8002087
:1059F0001CB5854802F01FFB834901221C318248F7
:105A0000019102F006FA8049012238317E48009166
:105A100002F0FFF97C49012254318B467A4802F0AA
:105A2000F8F97949012270318A46774802F0F1F994
:105A3000754901228C318946734802F0EAF97249AE
:105A40000122A8318846704802F0E3F970486F4996
:105A50006D4DC1606F4900266F4CC43501612078DF
:105A600038B32670607820B36C4F6748019997ED82
:105A7000000A02F0DEF997ED010A6348009902F08E
:105A8000D8F997ED020A59465F4802F0D2F997ED2E
:105A9000030A51465C4802F0CCF997ED040A4946E6
:105AA000594802F0C6F997ED050A4146564802F0FA
:105AB000C0F9A07800287CD06169002911DB524828
:105AC00000F8C41F9FED560A80ED010ADFED550A6C
:105AD000C0ED020A80ED030A80ED040AC0ED050A5C
